{
  "_format": "hh-sol-artifact-1",
  "contractName": "socialMediacontract",
  "sourceName": "contracts/Sahil.sol",
  "abi": [
    {
      "inputs": [
        {
          "internalType": "address",
          "name": "",
          "type": "address"
        }
      ],
      "name": "addressToUser",
      "outputs": [
        {
          "internalType": "uint256",
          "name": "id",
          "type": "uint256"
        },
        {
          "internalType": "string",
          "name": "name",
          "type": "string"
        },
        {
          "internalType": "string",
          "name": "bio",
          "type": "string"
        },
        {
          "internalType": "uint256",
          "name": "amount",
          "type": "uint256"
        },
        {
          "internalType": "address",
          "name": "add",
          "type": "address"
        }
      ],
      "stateMutability": "view",
      "type": "function"
    },
    {
      "inputs": [],
      "name": "alreadyAUser",
      "outputs": [
        {
          "internalType": "bool",
          "name": "",
          "type": "bool"
        }
      ],
      "stateMutability": "view",
      "type": "function"
    },
    {
      "inputs": [
        {
          "internalType": "string",
          "name": "_images",
          "type": "string"
        },
        {
          "internalType": "string",
          "name": "_title",
          "type": "string"
        }
      ],
      "name": "createAPost",
      "outputs": [],
      "stateMutability": "nonpayable",
      "type": "function"
    },
    {
      "inputs": [
        {
          "internalType": "string",
          "name": "_name",
          "type": "string"
        },
        {
          "internalType": "string",
          "name": "_bio",
          "type": "string"
        }
      ],
      "name": "createUser",
      "outputs": [],
      "stateMutability": "nonpayable",
      "type": "function"
    },
    {
      "inputs": [],
      "name": "deploy",
      "outputs": [
        {
          "internalType": "uint256",
          "name": "",
          "type": "uint256"
        }
      ],
      "stateMutability": "view",
      "type": "function"
    },
    {
      "inputs": [],
      "name": "getAllPost",
      "outputs": [
        {
          "components": [
            {
              "internalType": "uint256",
              "name": "id",
              "type": "uint256"
            },
            {
              "internalType": "string",
              "name": "images",
              "type": "string"
            },
            {
              "internalType": "string",
              "name": "title",
              "type": "string"
            },
            {
              "internalType": "address",
              "name": "owner",
              "type": "address"
            }
          ],
          "internalType": "struct socialMediacontract.Post[]",
          "name": "",
          "type": "tuple[]"
        }
      ],
      "stateMutability": "view",
      "type": "function"
    },
    {
      "inputs": [],
      "name": "getAllUser",
      "outputs": [
        {
          "components": [
            {
              "internalType": "uint256",
              "name": "id",
              "type": "uint256"
            },
            {
              "internalType": "string",
              "name": "name",
              "type": "string"
            },
            {
              "internalType": "string",
              "name": "bio",
              "type": "string"
            },
            {
              "internalType": "uint256",
              "name": "amount",
              "type": "uint256"
            },
            {
              "internalType": "address",
              "name": "add",
              "type": "address"
            }
          ],
          "internalType": "struct socialMediacontract.User[]",
          "name": "",
          "type": "tuple[]"
        }
      ],
      "stateMutability": "view",
      "type": "function"
    },
    {
      "inputs": [],
      "name": "getPostByUser",
      "outputs": [
        {
          "components": [
            {
              "internalType": "uint256",
              "name": "id",
              "type": "uint256"
            },
            {
              "internalType": "string",
              "name": "images",
              "type": "string"
            },
            {
              "internalType": "string",
              "name": "title",
              "type": "string"
            },
            {
              "internalType": "address",
              "name": "owner",
              "type": "address"
            }
          ],
          "internalType": "struct socialMediacontract.Post[]",
          "name": "",
          "type": "tuple[]"
        }
      ],
      "stateMutability": "view",
      "type": "function"
    },
    {
      "inputs": [
        {
          "internalType": "address",
          "name": "_add",
          "type": "address"
        }
      ],
      "name": "getUserPostByAdress",
      "outputs": [
        {
          "components": [
            {
              "internalType": "uint256",
              "name": "id",
              "type": "uint256"
            },
            {
              "internalType": "string",
              "name": "images",
              "type": "string"
            },
            {
              "internalType": "string",
              "name": "title",
              "type": "string"
            },
            {
              "internalType": "address",
              "name": "owner",
              "type": "address"
            }
          ],
          "internalType": "struct socialMediacontract.Post[]",
          "name": "",
          "type": "tuple[]"
        }
      ],
      "stateMutability": "view",
      "type": "function"
    },
    {
      "inputs": [],
      "name": "name",
      "outputs": [
        {
          "internalType": "string",
          "name": "",
          "type": "string"
        }
      ],
      "stateMutability": "view",
      "type": "function"
    },
    {
      "inputs": [
        {
          "internalType": "address",
          "name": "",
          "type": "address"
        },
        {
          "internalType": "uint256",
          "name": "",
          "type": "uint256"
        }
      ],
      "name": "postByuser",
      "outputs": [
        {
          "internalType": "uint256",
          "name": "id",
          "type": "uint256"
        },
        {
          "internalType": "string",
          "name": "images",
          "type": "string"
        },
        {
          "internalType": "string",
          "name": "title",
          "type": "string"
        },
        {
          "internalType": "address",
          "name": "owner",
          "type": "address"
        }
      ],
      "stateMutability": "view",
      "type": "function"
    },
    {
      "inputs": [],
      "name": "postCount",
      "outputs": [
        {
          "internalType": "uint256",
          "name": "",
          "type": "uint256"
        }
      ],
      "stateMutability": "view",
      "type": "function"
    },
    {
      "inputs": [
        {
          "internalType": "uint256",
          "name": "",
          "type": "uint256"
        }
      ],
      "name": "postList",
      "outputs": [
        {
          "internalType": "uint256",
          "name": "id",
          "type": "uint256"
        },
        {
          "internalType": "string",
          "name": "images",
          "type": "string"
        },
        {
          "internalType": "string",
          "name": "title",
          "type": "string"
        },
        {
          "internalType": "address",
          "name": "owner",
          "type": "address"
        }
      ],
      "stateMutability": "view",
      "type": "function"
    },
    {
      "inputs": [
        {
          "internalType": "uint256",
          "name": "_id",
          "type": "uint256"
        }
      ],
      "name": "postToUser",
      "outputs": [
        {
          "components": [
            {
              "internalType": "uint256",
              "name": "id",
              "type": "uint256"
            },
            {
              "internalType": "string",
              "name": "name",
              "type": "string"
            },
            {
              "internalType": "string",
              "name": "bio",
              "type": "string"
            },
            {
              "internalType": "uint256",
              "name": "amount",
              "type": "uint256"
            },
            {
              "internalType": "address",
              "name": "add",
              "type": "address"
            }
          ],
          "internalType": "struct socialMediacontract.User",
          "name": "",
          "type": "tuple"
        }
      ],
      "stateMutability": "view",
      "type": "function"
    },
    {
      "inputs": [
        {
          "internalType": "uint256",
          "name": "_id",
          "type": "uint256"
        },
        {
          "internalType": "string",
          "name": "_images",
          "type": "string"
        },
        {
          "internalType": "string",
          "name": "_title",
          "type": "string"
        }
      ],
      "name": "updateApost",
      "outputs": [],
      "stateMutability": "nonpayable",
      "type": "function"
    },
    {
      "inputs": [
        {
          "internalType": "string",
          "name": "_name",
          "type": "string"
        },
        {
          "internalType": "string",
          "name": "_bio",
          "type": "string"
        }
      ],
      "name": "updateUser",
      "outputs": [],
      "stateMutability": "nonpayable",
      "type": "function"
    },
    {
      "inputs": [],
      "name": "userCount",
      "outputs": [
        {
          "internalType": "uint256",
          "name": "",
          "type": "uint256"
        }
      ],
      "stateMutability": "view",
      "type": "function"
    },
    {
      "inputs": [
        {
          "internalType": "uint256",
          "name": "",
          "type": "uint256"
        }
      ],
      "name": "userList",
      "outputs": [
        {
          "internalType": "uint256",
          "name": "id",
          "type": "uint256"
        },
        {
          "internalType": "string",
          "name": "name",
          "type": "string"
        },
        {
          "internalType": "string",
          "name": "bio",
          "type": "string"
        },
        {
          "internalType": "uint256",
          "name": "amount",
          "type": "uint256"
        },
        {
          "internalType": "address",
          "name": "add",
          "type": "address"
        }
      ],
      "stateMutability": "view",
      "type": "function"
    }
  ],
  "bytecode": "0x60806040526000805560006001556040518060400160405280600581526020017f736168696c00000000000000000000000000000000000000000000000000000081525060029081620000539190620002e2565b503480156200006157600080fd5b50620003c9565b600081519050919050565b7f4e487b7100000000000000000000000000000000000000000000000000000000600052604160045260246000fd5b7f4e487b7100000000000000000000000000000000000000000000000000000000600052602260045260246000fd5b60006002820490506001821680620000ea57607f821691505b6020821081036200010057620000ff620000a2565b5b50919050565b60008190508160005260206000209050919050565b60006020601f8301049050919050565b600082821b905092915050565b6000600883026200016a7fffffffffffffffffffffffffffffffffffffffffffffffffffffffffffffffff826200012b565b6200017686836200012b565b95508019841693508086168417925050509392505050565b6000819050919050565b6000819050919050565b6000620001c3620001bd620001b7846200018e565b62000198565b6200018e565b9050919050565b6000819050919050565b620001df83620001a2565b620001f7620001ee82620001ca565b84845462000138565b825550505050565b600090565b6200020e620001ff565b6200021b818484620001d4565b505050565b5b8181101562000243576200023760008262000204565b60018101905062000221565b5050565b601f82111562000292576200025c8162000106565b62000267846200011b565b8101602085101562000277578190505b6200028f62000286856200011b565b83018262000220565b50505b505050565b600082821c905092915050565b6000620002b76000198460080262000297565b1980831691505092915050565b6000620002d28383620002a4565b9150826002028217905092915050565b620002ed8262000068565b67ffffffffffffffff81111562000309576200030862000073565b5b620003158254620000d1565b6200032282828562000247565b600060209050601f8311600181146200035a576000841562000345578287015190505b620003518582620002c4565b865550620003c1565b601f1984166200036a8662000106565b60005b8281101562000394578489015182556001820191506020850194506020810190506200036d565b86831015620003b45784890151620003b0601f891682620002a4565b8355505b6001600288020188555050505b505050505050565b612a8f80620003d96000396000f3fe608060405234801561001057600080fd5b50600436106101165760003560e01c806365558a65116100a2578063bc34057911610071578063bc34057914610301578063da7d9d101461031d578063dd4a24251461033b578063edf5388614610357578063f510d7bb1461038b57610116565b806365558a6514610263578063775c300c1461029357806387b162b5146102b15780639f4216e8146102cd57610116565b80631ac1c6b8116100e95780631ac1c6b81461019157806326a85e81146101af5780633a6209c3146101e257806347531df8146102155780635c7f44051461023357610116565b806306fdde031461011b57806307973ccf1461013957806316615d701461015757806317906c2e14610173575b600080fd5b6101236103a9565b6040516101309190611cf6565b60405180910390f35b610141610437565b60405161014e9190611d31565b60405180910390f35b610171600480360381019061016c9190611ec1565b61043d565b005b61017b6105a2565b6040516101889190611d31565b60405180910390f35b6101996105a8565b6040516101a69190611f67565b60405180910390f35b6101c960048036038101906101c49190611fe0565b610658565b6040516101d9949392919061202f565b60405180910390f35b6101fc60048036038101906101f79190612082565b6107d5565b60405161020c949392919061202f565b60405180910390f35b61021d610945565b60405161022a9190612256565b60405180910390f35b61024d60048036038101906102489190612082565b610b32565b60405161025a91906122f5565b60405180910390f35b61027d60048036038101906102789190612317565b610d6a565b60405161028a9190612470565b60405180910390f35b61029b610f8c565b6040516102a89190611d31565b60405180910390f35b6102cb60048036038101906102c69190612492565b610f95565b005b6102e760048036038101906102e29190612082565b6111bc565b6040516102f895949392919061250a565b60405180910390f35b61031b60048036038101906103169190612492565b611332565b005b610325611566565b6040516103329190612470565b60405180910390f35b61035560048036038101906103509190612492565b611749565b005b610371600480360381019061036c9190612317565b61189b565b60405161038295949392919061250a565b60405180910390f35b610393611a01565b6040516103a09190612470565b60405180910390f35b600280546103b69061259a565b80601f01602080910402602001604051908101604052809291908181526020018280546103e29061259a565b801561042f5780601f106104045761010080835404028352916020019161042f565b820191906000526020600020905b81548152906001019060200180831161041257829003601f168201915b505050505081565b60005481565b6104456105a8565b610484576040517f08c379a000000000000000000000000000000000000000000000000000000000815260040161047b9061263d565b60405180910390fd5b3373ffffffffffffffffffffffffffffffffffffffff16600584815481106104af576104ae61265d565b5b906000526020600020906004020160030160009054906101000a900473ffffffffffffffffffffffffffffffffffffffff1673ffffffffffffffffffffffffffffffffffffffff1614610537576040517f08c379a000000000000000000000000000000000000000000000000000000000815260040161052e906126d8565b60405180910390fd5b816005848154811061054c5761054b61265d565b5b9060005260206000209060040201600101908161056991906128a4565b50806005848154811061057f5761057e61265d565b5b9060005260206000209060040201600201908161059c91906128a4565b50505050565b60015481565b600080600480549050905060005b8181101561064e57600481815481106105d2576105d161265d565b5b906000526020600020906005020160040160009054906101000a900473ffffffffffffffffffffffffffffffffffffffff1673ffffffffffffffffffffffffffffffffffffffff163373ffffffffffffffffffffffffffffffffffffffff160361064157600192505050610655565b80806001019150506105b6565b5060009150505b90565b6006602052816000526040600020818154811061067457600080fd5b90600052602060002090600402016000915091505080600001549080600101805461069e9061259a565b80601f01602080910402602001604051908101604052809291908181526020018280546106ca9061259a565b80156107175780601f106106ec57610100808354040283529160200191610717565b820191906000526020600020905b8154815290600101906020018083116106fa57829003601f168201915b50505050509080600201805461072c9061259a565b80601f01602080910402602001604051908101604052809291908181526020018280546107589061259a565b80156107a55780601f1061077a576101008083540402835291602001916107a5565b820191906000526020600020905b81548152906001019060200180831161078857829003601f168201915b5050505050908060030160009054906101000a900473ffffffffffffffffffffffffffffffffffffffff16905084565b600581815481106107e557600080fd5b906000526020600020906004020160009150905080600001549080600101805461080e9061259a565b80601f016020809104026020016040519081016040528092919081815260200182805461083a9061259a565b80156108875780601f1061085c57610100808354040283529160200191610887565b820191906000526020600020905b81548152906001019060200180831161086a57829003601f168201915b50505050509080600201805461089c9061259a565b80601f01602080910402602001604051908101604052809291908181526020018280546108c89061259a565b80156109155780601f106108ea57610100808354040283529160200191610915565b820191906000526020600020905b8154815290600101906020018083116108f857829003601f168201915b5050505050908060030160009054906101000a900473ffffffffffffffffffffffffffffffffffffffff16905084565b60606004805480602002602001604051908101604052809291908181526020016000905b82821015610b2957838290600052602060002090600502016040518060a0016040529081600082015481526020016001820180546109a69061259a565b80601f01602080910402602001604051908101604052809291908181526020018280546109d29061259a565b8015610a1f5780601f106109f457610100808354040283529160200191610a1f565b820191906000526020600020905b815481529060010190602001808311610a0257829003601f168201915b50505050508152602001600282018054610a389061259a565b80601f0160208091040260200160405190810160405280929190818152602001828054610a649061259a565b8015610ab15780601f10610a8657610100808354040283529160200191610ab1565b820191906000526020600020905b815481529060010190602001808311610a9457829003601f168201915b50505050508152602001600382015481526020016004820160009054906101000a900473ffffffffffffffffffffffffffffffffffffffff1673ffffffffffffffffffffffffffffffffffffffff1673ffffffffffffffffffffffffffffffffffffffff168152505081526020019060010190610969565b50505050905090565b610b3a611c21565b600060058381548110610b5057610b4f61265d565b5b906000526020600020906004020160030160009054906101000a900473ffffffffffffffffffffffffffffffffffffffff1690506000600360008373ffffffffffffffffffffffffffffffffffffffff1673ffffffffffffffffffffffffffffffffffffffff1681526020019081526020016000206040518060a001604052908160008201548152602001600182018054610bea9061259a565b80601f0160208091040260200160405190810160405280929190818152602001828054610c169061259a565b8015610c635780601f10610c3857610100808354040283529160200191610c63565b820191906000526020600020905b815481529060010190602001808311610c4657829003601f168201915b50505050508152602001600282018054610c7c9061259a565b80601f0160208091040260200160405190810160405280929190818152602001828054610ca89061259a565b8015610cf55780601f10610cca57610100808354040283529160200191610cf5565b820191906000526020600020905b815481529060010190602001808311610cd857829003601f168201915b50505050508152602001600382015481526020016004820160009054906101000a900473ffffffffffffffffffffffffffffffffffffffff1673ffffffffffffffffffffffffffffffffffffffff1673ffffffffffffffffffffffffffffffffffffffff168152505090508092505050919050565b6060600660008373ffffffffffffffffffffffffffffffffffffffff1673ffffffffffffffffffffffffffffffffffffffff168152602001908152602001600020805480602002602001604051908101604052809291908181526020016000905b82821015610f81578382906000526020600020906004020160405180608001604052908160008201548152602001600182018054610e089061259a565b80601f0160208091040260200160405190810160405280929190818152602001828054610e349061259a565b8015610e815780601f10610e5657610100808354040283529160200191610e81565b820191906000526020600020905b815481529060010190602001808311610e6457829003601f168201915b50505050508152602001600282018054610e9a9061259a565b80601f0160208091040260200160405190810160405280929190818152602001828054610ec69061259a565b8015610f135780601f10610ee857610100808354040283529160200191610f13565b820191906000526020600020905b815481529060010190602001808311610ef657829003601f168201915b505050505081526020016003820160009054906101000a900473ffffffffffffffffffffffffffffffffffffffff1673ffffffffffffffffffffffffffffffffffffffff1673ffffffffffffffffffffffffffffffffffffffff168152505081526020019060010190610dcb565b505050509050919050565b60008054905090565b610f9d6105a8565b15610fdd576040517f08c379a0000000000000000000000000000000000000000000000000000000008152600401610fd4906129c2565b60405180910390fd5b60006040518060a001604052806000548152602001848152602001838152602001609681526020013373ffffffffffffffffffffffffffffffffffffffff168152509050600481908060018154018082558091505060019003906000526020600020906005020160009091909190915060008201518160000155602082015181600101908161106c91906128a4565b50604082015181600201908161108291906128a4565b506060820151816003015560808201518160040160006101000a81548173ffffffffffffffffffffffffffffffffffffffff021916908373ffffffffffffffffffffffffffffffffffffffff160217905550505080600360003373ffffffffffffffffffffffffffffffffffffffff1673ffffffffffffffffffffffffffffffffffffffff16815260200190815260200160002060008201518160000155602082015181600101908161113591906128a4565b50604082015181600201908161114b91906128a4565b506060820151816003015560808201518160040160006101000a81548173ffffffffffffffffffffffffffffffffffffffff021916908373ffffffffffffffffffffffffffffffffffffffff1602179055509050506000808154809291906111b290612a11565b9190505550505050565b600481815481106111cc57600080fd5b90600052602060002090600502016000915090508060000154908060010180546111f59061259a565b80601f01602080910402602001604051908101604052809291908181526020018280546112219061259a565b801561126e5780601f106112435761010080835404028352916020019161126e565b820191906000526020600020905b81548152906001019060200180831161125157829003601f168201915b5050505050908060020180546112839061259a565b80601f01602080910402602001604051908101604052809291908181526020018280546112af9061259a565b80156112fc5780601f106112d1576101008083540402835291602001916112fc565b820191906000526020600020905b8154815290600101906020018083116112df57829003601f168201915b5050505050908060030154908060040160009054906101000a900473ffffffffffffffffffffffffffffffffffffffff16905085565b61133a6105a8565b611379576040517f08c379a00000000000000000000000000000000000000000000000000000000081526004016113709061263d565b60405180910390fd5b6000604051806080016040528060015481526020018481526020018381526020013373ffffffffffffffffffffffffffffffffffffffff168152509050600581908060018154018082558091505060019003906000526020600020906004020160009091909190915060008201518160000155602082015181600101908161140191906128a4565b50604082015181600201908161141791906128a4565b5060608201518160030160006101000a81548173ffffffffffffffffffffffffffffffffffffffff021916908373ffffffffffffffffffffffffffffffffffffffff16021790555050506001600081548092919061147490612a11565b9190505550600660003373ffffffffffffffffffffffffffffffffffffffff1673ffffffffffffffffffffffffffffffffffffffff16815260200190815260200160002081908060018154018082558091505060019003906000526020600020906004020160009091909190915060008201518160000155602082015181600101908161150191906128a4565b50604082015181600201908161151791906128a4565b5060608201518160030160006101000a81548173ffffffffffffffffffffffffffffffffffffffff021916908373ffffffffffffffffffffffffffffffffffffffff1602179055505050505050565b60606005805480602002602001604051908101604052809291908181526020016000905b828210156117405783829060005260206000209060040201604051806080016040529081600082015481526020016001820180546115c79061259a565b80601f01602080910402602001604051908101604052809291908181526020018280546115f39061259a565b80156116405780601f1061161557610100808354040283529160200191611640565b820191906000526020600020905b81548152906001019060200180831161162357829003601f168201915b505050505081526020016002820180546116599061259a565b80601f01602080910402602001604051908101604052809291908181526020018280546116859061259a565b80156116d25780601f106116a7576101008083540402835291602001916116d2565b820191906000526020600020905b8154815290600101906020018083116116b557829003601f168201915b505050505081526020016003820160009054906101000a900473ffffffffffffffffffffffffffffffffffffffff1673ffffffffffffffffffffffffffffffffffffffff1673ffffffffffffffffffffffffffffffffffffffff16815250508152602001906001019061158a565b50505050905090565b81600360003373ffffffffffffffffffffffffffffffffffffffff1673ffffffffffffffffffffffffffffffffffffffff168152602001908152602001600020600101908161179891906128a4565b5080600360003373ffffffffffffffffffffffffffffffffffffffff1673ffffffffffffffffffffffffffffffffffffffff16815260200190815260200160002060020190816117e891906128a4565b506000600360003373ffffffffffffffffffffffffffffffffffffffff1673ffffffffffffffffffffffffffffffffffffffff16815260200190815260200160002060000154905082600482815481106118455761184461265d565b5b9060005260206000209060050201600101908161186291906128a4565b5081600482815481106118785761187761265d565b5b9060005260206000209060050201600201908161189591906128a4565b50505050565b60036020528060005260406000206000915090508060000154908060010180546118c49061259a565b80601f01602080910402602001604051908101604052809291908181526020018280546118f09061259a565b801561193d5780601f106119125761010080835404028352916020019161193d565b820191906000526020600020905b81548152906001019060200180831161192057829003601f168201915b5050505050908060020180546119529061259a565b80601f016020809104026020016040519081016040528092919081815260200182805461197e9061259a565b80156119cb5780601f106119a0576101008083540402835291602001916119cb565b820191906000526020600020905b8154815290600101906020018083116119ae57829003601f168201915b5050505050908060030154908060040160009054906101000a900473ffffffffffffffffffffffffffffffffffffffff16905085565b6060600660003373ffffffffffffffffffffffffffffffffffffffff1673ffffffffffffffffffffffffffffffffffffffff168152602001908152602001600020805480602002602001604051908101604052809291908181526020016000905b82821015611c18578382906000526020600020906004020160405180608001604052908160008201548152602001600182018054611a9f9061259a565b80601f0160208091040260200160405190810160405280929190818152602001828054611acb9061259a565b8015611b185780601f10611aed57610100808354040283529160200191611b18565b820191906000526020600020905b815481529060010190602001808311611afb57829003601f168201915b50505050508152602001600282018054611b319061259a565b80601f0160208091040260200160405190810160405280929190818152602001828054611b5d9061259a565b8015611baa5780601f10611b7f57610100808354040283529160200191611baa565b820191906000526020600020905b815481529060010190602001808311611b8d57829003601f168201915b505050505081526020016003820160009054906101000a900473ffffffffffffffffffffffffffffffffffffffff1673ffffffffffffffffffffffffffffffffffffffff1673ffffffffffffffffffffffffffffffffffffffff168152505081526020019060010190611a62565b50505050905090565b6040518060a0016040528060008152602001606081526020016060815260200160008152602001600073ffffffffffffffffffffffffffffffffffffffff1681525090565b600081519050919050565b600082825260208201905092915050565b60005b83811015611ca0578082015181840152602081019050611c85565b60008484015250505050565b6000601f19601f8301169050919050565b6000611cc882611c66565b611cd28185611c71565b9350611ce2818560208601611c82565b611ceb81611cac565b840191505092915050565b60006020820190508181036000830152611d108184611cbd565b905092915050565b6000819050919050565b611d2b81611d18565b82525050565b6000602082019050611d466000830184611d22565b92915050565b6000604051905090565b600080fd5b600080fd5b611d6981611d18565b8114611d7457600080fd5b50565b600081359050611d8681611d60565b92915050565b600080fd5b600080fd5b7f4e487b7100000000000000000000000000000000000000000000000000000000600052604160045260246000fd5b611dce82611cac565b810181811067ffffffffffffffff82111715611ded57611dec611d96565b5b80604052505050565b6000611e00611d4c565b9050611e0c8282611dc5565b919050565b600067ffffffffffffffff821115611e2c57611e2b611d96565b5b611e3582611cac565b9050602081019050919050565b82818337600083830152505050565b6000611e64611e5f84611e11565b611df6565b905082815260208101848484011115611e8057611e7f611d91565b5b611e8b848285611e42565b509392505050565b600082601f830112611ea857611ea7611d8c565b5b8135611eb8848260208601611e51565b91505092915050565b600080600060608486031215611eda57611ed9611d56565b5b6000611ee886828701611d77565b935050602084013567ffffffffffffffff811115611f0957611f08611d5b565b5b611f1586828701611e93565b925050604084013567ffffffffffffffff811115611f3657611f35611d5b565b5b611f4286828701611e93565b9150509250925092565b60008115159050919050565b611f6181611f4c565b82525050565b6000602082019050611f7c6000830184611f58565b92915050565b600073ffffffffffffffffffffffffffffffffffffffff82169050919050565b6000611fad82611f82565b9050919050565b611fbd81611fa2565b8114611fc857600080fd5b50565b600081359050611fda81611fb4565b92915050565b60008060408385031215611ff757611ff6611d56565b5b600061200585828601611fcb565b925050602061201685828601611d77565b9150509250929050565b61202981611fa2565b82525050565b60006080820190506120446000830187611d22565b81810360208301526120568186611cbd565b9050818103604083015261206a8185611cbd565b90506120796060830184612020565b95945050505050565b60006020828403121561209857612097611d56565b5b60006120a684828501611d77565b91505092915050565b600081519050919050565b600082825260208201905092915050565b6000819050602082019050919050565b6120e481611d18565b82525050565b600082825260208201905092915050565b600061210682611c66565b61211081856120ea565b9350612120818560208601611c82565b61212981611cac565b840191505092915050565b61213d81611fa2565b82525050565b600060a08301600083015161215b60008601826120db565b506020830151848203602086015261217382826120fb565b9150506040830151848203604086015261218d82826120fb565b91505060608301516121a260608601826120db565b5060808301516121b56080860182612134565b508091505092915050565b60006121cc8383612143565b905092915050565b6000602082019050919050565b60006121ec826120af565b6121f681856120ba565b935083602082028501612208856120cb565b8060005b85811015612244578484038952815161222585826121c0565b9450612230836121d4565b925060208a0199505060018101905061220c565b50829750879550505050505092915050565b6000602082019050818103600083015261227081846121e1565b905092915050565b600060a08301600083015161229060008601826120db565b50602083015184820360208601526122a882826120fb565b915050604083015184820360408601526122c282826120fb565b91505060608301516122d760608601826120db565b5060808301516122ea6080860182612134565b508091505092915050565b6000602082019050818103600083015261230f8184612278565b905092915050565b60006020828403121561232d5761232c611d56565b5b600061233b84828501611fcb565b91505092915050565b600081519050919050565b600082825260208201905092915050565b6000819050602082019050919050565b600060808301600083015161238860008601826120db565b50602083015184820360208601526123a082826120fb565b915050604083015184820360408601526123ba82826120fb565b91505060608301516123cf6060860182612134565b508091505092915050565b60006123e68383612370565b905092915050565b6000602082019050919050565b600061240682612344565b612410818561234f565b93508360208202850161242285612360565b8060005b8581101561245e578484038952815161243f85826123da565b945061244a836123ee565b925060208a01995050600181019050612426565b50829750879550505050505092915050565b6000602082019050818103600083015261248a81846123fb565b905092915050565b600080604083850312156124a9576124a8611d56565b5b600083013567ffffffffffffffff8111156124c7576124c6611d5b565b5b6124d385828601611e93565b925050602083013567ffffffffffffffff8111156124f4576124f3611d5b565b5b61250085828601611e93565b9150509250929050565b600060a08201905061251f6000830188611d22565b81810360208301526125318187611cbd565b905081810360408301526125458186611cbd565b90506125546060830185611d22565b6125616080830184612020565b9695505050505050565b7f4e487b7100000000000000000000000000000000000000000000000000000000600052602260045260246000fd5b600060028204905060018216806125b257607f821691505b6020821081036125c5576125c461256b565b5b50919050565b7f596f7520617265206e6f74206120757365722e506c65617365207369676e206960008201527f6e20666972737400000000000000000000000000000000000000000000000000602082015250565b6000612627602783611c71565b9150612632826125cb565b604082019050919050565b600060208201905081810360008301526126568161261a565b9050919050565b7f4e487b7100000000000000000000000000000000000000000000000000000000600052603260045260246000fd5b7f5468697320706f737420646f65736e6f74206372656174656420627920596f75600082015250565b60006126c2602083611c71565b91506126cd8261268c565b602082019050919050565b600060208201905081810360008301526126f1816126b5565b9050919050565b60008190508160005260206000209050919050565b60006020601f8301049050919050565b600082821b905092915050565b60006008830261275a7fffffffffffffffffffffffffffffffffffffffffffffffffffffffffffffffff8261271d565b612764868361271d565b95508019841693508086168417925050509392505050565b6000819050919050565b60006127a161279c61279784611d18565b61277c565b611d18565b9050919050565b6000819050919050565b6127bb83612786565b6127cf6127c7826127a8565b84845461272a565b825550505050565b600090565b6127e46127d7565b6127ef8184846127b2565b505050565b5b81811015612813576128086000826127dc565b6001810190506127f5565b5050565b601f82111561285857612829816126f8565b6128328461270d565b81016020851015612841578190505b61285561284d8561270d565b8301826127f4565b50505b505050565b600082821c905092915050565b600061287b6000198460080261285d565b1980831691505092915050565b6000612894838361286a565b9150826002028217905092915050565b6128ad82611c66565b67ffffffffffffffff8111156128c6576128c5611d96565b5b6128d0825461259a565b6128db828285612817565b600060209050601f83116001811461290e57600084156128fc578287015190505b6129068582612888565b86555061296e565b601f19841661291c866126f8565b60005b828110156129445784890151825560018201915060208501945060208101905061291f565b86831015612961578489015161295d601f89168261286a565b8355505b6001600288020188555050505b505050505050565b7f552061726520616c726561647920612055736572000000000000000000000000600082015250565b60006129ac601483611c71565b91506129b782612976565b602082019050919050565b600060208201905081810360008301526129db8161299f565b9050919050565b7f4e487b7100000000000000000000000000000000000000000000000000000000600052601160045260246000fd5b6000612a1c82611d18565b91507fffffffffffffffffffffffffffffffffffffffffffffffffffffffffffffffff8203612a4e57612a4d6129e2565b5b60018201905091905056fea264697066735822122077c42aa1a03456aa5681c834223d47a8598ceaaf1e6cb2e54e120fd297f7290c64736f6c63430008180033",
  "linkReferences": {},
  "deployedLinkReferences": {}
}